{
  "transactions": [
    {
      "hash": "0x3cfcc6b0dfd49111fe0dc61ec6f6f69e090297bdd26e83ffcd68b2c3a87277ad",
      "transactionType": "CALL",
      "contractName": null,
      "contractAddress": "0xc43d8ff912abcb7bab8abc61cacd11b0c630dd9d",
      "function": "updateFeeCreator(bool,uint256)",
      "arguments": [
        "true",
        "100"
      ],
      "transaction": {
        "from": "0xcd310b1c2f2fb183eea465182a0bf80353b241d1",
        "to": "0xc43d8ff912abcb7bab8abc61cacd11b0c630dd9d",
        "gas": "0x14cdd",
        "value": "0x0",
        "input": "0xdea241bf00000000000000000000000000000000000000000000000000000000000000010000000000000000000000000000000000000000000000000000000000000064",
        "nonce": "0x7",
        "chainId": "0x2105"
      },
      "additionalContracts": [],
      "isFixedGasLimit": false
    },
    {
      "hash": "0x6bbffb49ac131f61c90e5c6c36a9927f740ba1e62b1d9730fe51c285e1ffd76f",
      "transactionType": "CALL",
      "contractName": null,
      "contractAddress": "0xc43d8ff912abcb7bab8abc61cacd11b0c630dd9d",
      "function": "updateFeePlatform(bool,uint256)",
      "arguments": [
        "true",
        "20"
      ],
      "transaction": {
        "from": "0xcd310b1c2f2fb183eea465182a0bf80353b241d1",
        "to": "0xc43d8ff912abcb7bab8abc61cacd11b0c630dd9d",
        "gas": "0x13a20",
        "value": "0x0",
        "input": "0xf358b64600000000000000000000000000000000000000000000000000000000000000010000000000000000000000000000000000000000000000000000000000000014",
        "nonce": "0x8",
        "chainId": "0x2105"
      },
      "additionalContracts": [],
      "isFixedGasLimit": false
    }
  ],
  "receipts": [
    {
      "status": "0x1",
      "cumulativeGasUsed": "0x77ab0b",
      "logs": [
        {
          "address": "0xc43d8ff912abcb7bab8abc61cacd11b0c630dd9d",
          "topics": [
            "0x58d2f0727d1e89eaefaf56e10b6d5b9167ac07eccda784d7554fa16d12e25359"
          ],
          "data": "0x0000000000000000000000000000000000000000000000000000000000000001000000000000000000000000000000000000000000000000000000000000006400000000000000000000000000000000000000000000000000000000000000000000000000000000000000000000000000000000000000000000000000000064",
          "blockHash": "0xb77d59663814ec48ba7bedaa3264f1a41026f9a0e211ccf708be8fe16d07f782",
          "blockNumber": "0x21016a8",
          "blockTimestamp": "0x68aa8a33",
          "transactionHash": "0x3cfcc6b0dfd49111fe0dc61ec6f6f69e090297bdd26e83ffcd68b2c3a87277ad",
          "transactionIndex": "0x35",
          "logIndex": "0xbf",
          "removed": false
        }
      ],
      "logsBloom": "0x10000000000000000000000000000000000000000000000000000000000000000000000000100000000000000000000020000000000000000000000000000000000000000000000000000000000000000000000000000000000000000000000000000000000000000000000000000000000000000000100000000000000000000000000000000000000000000000000000000000000000000000000000000000000000000000010000000000000000000000000000000000000000000000000000000000000000000002000000000000000000000000000000000000000000000000000000000000000000000000000000000000000000000000000000000000",
      "type": "0x2",
      "transactionHash": "0x3cfcc6b0dfd49111fe0dc61ec6f6f69e090297bdd26e83ffcd68b2c3a87277ad",
      "transactionIndex": "0x35",
      "blockHash": "0xb77d59663814ec48ba7bedaa3264f1a41026f9a0e211ccf708be8fe16d07f782",
      "blockNumber": "0x21016a8",
      "gasUsed": "0xe39a",
      "effectiveGasPrice": "0xc6fc1",
      "from": "0xcd310b1c2f2fb183eea465182a0bf80353b241d1",
      "to": "0xc43d8ff912abcb7bab8abc61cacd11b0c630dd9d",
      "contractAddress": null,
      "l1BaseFeeScalar": "0x8dd",
      "l1BlobBaseFee": "0x1",
      "l1BlobBaseFeeScalar": "0x101c12",
      "l1Fee": "0x26067411",
      "l1GasPrice": "0xa795f27",
      "l1GasUsed": "0x640"
    },
    {
      "status": "0x1",
      "cumulativeGasUsed": "0x788e78",
      "logs": [
        {
          "address": "0xc43d8ff912abcb7bab8abc61cacd11b0c630dd9d",
          "topics": [
            "0x58d2f0727d1e89eaefaf56e10b6d5b9167ac07eccda784d7554fa16d12e25359"
          ],
          "data": "0x0000000000000000000000000000000000000000000000000000000000000001000000000000000000000000000000000000000000000000000000000000006400000000000000000000000000000000000000000000000000000000000000010000000000000000000000000000000000000000000000000000000000000014",
          "blockHash": "0xb77d59663814ec48ba7bedaa3264f1a41026f9a0e211ccf708be8fe16d07f782",
          "blockNumber": "0x21016a8",
          "blockTimestamp": "0x68aa8a33",
          "transactionHash": "0x6bbffb49ac131f61c90e5c6c36a9927f740ba1e62b1d9730fe51c285e1ffd76f",
          "transactionIndex": "0x36",
          "logIndex": "0xc0",
          "removed": false
        }
      ],
      "logsBloom": "0x10000000000000000000000000000000000000000000000000000000000000000000000000100000000000000000000020000000000000000000000000000000000000000000000000000000000000000000000000000000000000000000000000000000000000000000000000000000000000000000100000000000000000000000000000000000000000000000000000000000000000000000000000000000000000000000010000000000000000000000000000000000000000000000000000000000000000000002000000000000000000000000000000000000000000000000000000000000000000000000000000000000000000000000000000000000",
      "type": "0x2",
      "transactionHash": "0x6bbffb49ac131f61c90e5c6c36a9927f740ba1e62b1d9730fe51c285e1ffd76f",
      "transactionIndex": "0x36",
      "blockHash": "0xb77d59663814ec48ba7bedaa3264f1a41026f9a0e211ccf708be8fe16d07f782",
      "blockNumber": "0x21016a8",
      "gasUsed": "0xe36d",
      "effectiveGasPrice": "0xc6fc1",
      "from": "0xcd310b1c2f2fb183eea465182a0bf80353b241d1",
      "to": "0xc43d8ff912abcb7bab8abc61cacd11b0c630dd9d",
      "contractAddress": null,
      "l1BaseFeeScalar": "0x8dd",
      "l1BlobBaseFee": "0x1",
      "l1BlobBaseFeeScalar": "0x101c12",
      "l1Fee": "0x26067411",
      "l1GasPrice": "0xa795f27",
      "l1GasUsed": "0x640"
    }
  ],
  "libraries": [],
  "pending": [],
  "returns": {},
  "timestamp": 1756006961,
  "chain": 8453,
  "commit": "983b8d4"
}