{
  "transactions": [
    {
      "hash": "0x2de357bb850a2fc97ca16e71cec725b7d13af73643c513b05d587c912a4fdce6",
      "transactionType": "CALL",
      "contractName": null,
      "contractAddress": "0xc43d8ff912abcb7bab8abc61cacd11b0c630dd9d",
      "function": "updatePlatformFeeRecipient(address)",
      "arguments": [
        "0x52Ef0599184a851C83814B0883da15f2697394a6"
      ],
      "transaction": {
        "from": "0xcd310b1c2f2fb183eea465182a0bf80353b241d1",
        "to": "0xc43d8ff912abcb7bab8abc61cacd11b0c630dd9d",
        "gas": "0x9e5d",
        "value": "0x0",
        "input": "0xf5fe7f7100000000000000000000000052ef0599184a851c83814b0883da15f2697394a6",
        "nonce": "0x9",
        "chainId": "0x2105"
      },
      "additionalContracts": [],
      "isFixedGasLimit": false
    }
  ],
  "receipts": [
    {
      "status": "0x1",
      "cumulativeGasUsed": "0xe2b67e",
      "logs": [],
      "logsBloom": "0x00000000000000000000000000000000000000000000000000000000000000000000000000000000000000000000000000000000000000000000000000000000000000000000000000000000000000000000000000000000000000000000000000000000000000000000000000000000000000000000000000000000000000000000000000000000000000000000000000000000000000000000000000000000000000000000000000000000000000000000000000000000000000000000000000000000000000000000000000000000000000000000000000000000000000000000000000000000000000000000000000000000000000000000000000000000",
      "type": "0x2",
      "transactionHash": "0x2de357bb850a2fc97ca16e71cec725b7d13af73643c513b05d587c912a4fdce6",
      "transactionIndex": "0x58",
      "blockHash": "0x27773861d7e3894a262cd5f36acc4d989c02b9c0505cb643d044c9f3ecd8b498",
      "blockNumber": "0x21016e2",
      "gasUsed": "0x72a8",
      "effectiveGasPrice": "0x124911",
      "from": "0xcd310b1c2f2fb183eea465182a0bf80353b241d1",
      "to": "0xc43d8ff912abcb7bab8abc61cacd11b0c630dd9d",
      "contractAddress": null,
      "l1BaseFeeScalar": "0x8dd",
      "l1BlobBaseFee": "0x1",
      "l1BlobBaseFeeScalar": "0x101c12",
      "l1Fee": "0x2613ad71",
      "l1GasPrice": "0xa7d03a9",
      "l1GasUsed": "0x640"
    }
  ],
  "libraries": [],
  "pending": [],
  "returns": {},
  "timestamp": 1756007080,
  "chain": 8453,
  "commit": "983b8d4"
}