{
  "transactions": [
    {
      "hash": "0x9e22f2b1f0a9bbc45122b5cda152793dcf5e109d5a8ebe76bb3f0c48f888f125",
      "transactionType": "CALL",
      "contractName": null,
      "contractAddress": "0x88598d1efc9032318fb7b39dcdd9e5c2a7a4f8b9",
      "function": "updateFeeCreator(bool,uint256)",
      "arguments": [
        "true",
        "100"
      ],
      "transaction": {
        "from": "0x20d2f3170153b2a33576ebcd1de32e13bf916e22",
        "to": "0x88598d1efc9032318fb7b39dcdd9e5c2a7a4f8b9",
        "gas": "0x13a22",
        "value": "0x0",
        "input": "0xdea241bf00000000000000000000000000000000000000000000000000000000000000010000000000000000000000000000000000000000000000000000000000000064",
        "nonce": "0x103",
        "chainId": "0x3e6"
      },
      "additionalContracts": [],
      "isFixedGasLimit": false
    },
    {
      "hash": "0x43852356b3d79d6b1f330b3cc6353ef7bf732953ea74a572c4701c58f793ebcd",
      "transactionType": "CALL",
      "contractName": null,
      "contractAddress": "0x88598d1efc9032318fb7b39dcdd9e5c2a7a4f8b9",
      "function": "updateFeePlatform(bool,uint256)",
      "arguments": [
        "true",
        "50"
      ],
      "transaction": {
        "from": "0x20d2f3170153b2a33576ebcd1de32e13bf916e22",
        "to": "0x88598d1efc9032318fb7b39dcdd9e5c2a7a4f8b9",
        "gas": "0x13a02",
        "value": "0x0",
        "input": "0xf358b64600000000000000000000000000000000000000000000000000000000000000010000000000000000000000000000000000000000000000000000000000000032",
        "nonce": "0x104",
        "chainId": "0x3e6"
      },
      "additionalContracts": [],
      "isFixedGasLimit": false
    }
  ],
  "receipts": [
    {
      "status": "0x1",
      "cumulativeGasUsed": "0xe36e",
      "logs": [
        {
          "address": "0x88598d1efc9032318fb7b39dcdd9e5c2a7a4f8b9",
          "topics": [
            "0x58d2f0727d1e89eaefaf56e10b6d5b9167ac07eccda784d7554fa16d12e25359"
          ],
          "data": "0x0000000000000000000000000000000000000000000000000000000000000001000000000000000000000000000000000000000000000000000000000000006400000000000000000000000000000000000000000000000000000000000000000000000000000000000000000000000000000000000000000000000000000064",
          "blockHash": "0x3ba85206909f40989fe915b6809d1d8b2091ef0bd717a9c191d48c4184a8fdfc",
          "blockNumber": "0x1a2aa96",
          "blockTimestamp": "0x687cb5b0",
          "transactionHash": "0x9e22f2b1f0a9bbc45122b5cda152793dcf5e109d5a8ebe76bb3f0c48f888f125",
          "transactionIndex": "0x0",
          "logIndex": "0x0",
          "removed": false
        }
      ],
      "logsBloom": "0x00000000000000000000000000000000000000000000000000000000000000000000000000000000000000000000000020000000000000000000000000000000000000000000000000000000000000000000000000000000000000000000000000000000000000000000000000000000000000000000000000000000000000000000000000001000000000000000000000000000000000000004000000000000000000000000010000000000000000000000000000000000000000000000000000000000000000000002000000000000000000000000000000000000000000000000000000000000000000000004000000000000000000000000000000000000",
      "type": "0x2",
      "transactionHash": "0x9e22f2b1f0a9bbc45122b5cda152793dcf5e109d5a8ebe76bb3f0c48f888f125",
      "transactionIndex": "0x0",
      "blockHash": "0x3ba85206909f40989fe915b6809d1d8b2091ef0bd717a9c191d48c4184a8fdfc",
      "blockNumber": "0x1a2aa96",
      "gasUsed": "0xe36e",
      "effectiveGasPrice": "0x7270e00",
      "from": "0x20d2f3170153b2a33576ebcd1de32e13bf916e22",
      "to": "0x88598d1efc9032318fb7b39dcdd9e5c2a7a4f8b9",
      "contractAddress": null
    },
    {
      "status": "0x1",
      "cumulativeGasUsed": "0x1c6c5",
      "logs": [
        {
          "address": "0x88598d1efc9032318fb7b39dcdd9e5c2a7a4f8b9",
          "topics": [
            "0x58d2f0727d1e89eaefaf56e10b6d5b9167ac07eccda784d7554fa16d12e25359"
          ],
          "data": "0x0000000000000000000000000000000000000000000000000000000000000001000000000000000000000000000000000000000000000000000000000000006400000000000000000000000000000000000000000000000000000000000000010000000000000000000000000000000000000000000000000000000000000032",
          "blockHash": "0x3ba85206909f40989fe915b6809d1d8b2091ef0bd717a9c191d48c4184a8fdfc",
          "blockNumber": "0x1a2aa96",
          "blockTimestamp": "0x687cb5b0",
          "transactionHash": "0x43852356b3d79d6b1f330b3cc6353ef7bf732953ea74a572c4701c58f793ebcd",
          "transactionIndex": "0x1",
          "logIndex": "0x1",
          "removed": false
        }
      ],
      "logsBloom": "0x00000000000000000000000000000000000000000000000000000000000000000000000000000000000000000000000020000000000000000000000000000000000000000000000000000000000000000000000000000000000000000000000000000000000000000000000000000000000000000000000000000000000000000000000000001000000000000000000000000000000000000004000000000000000000000000010000000000000000000000000000000000000000000000000000000000000000000002000000000000000000000000000000000000000000000000000000000000000000000004000000000000000000000000000000000000",
      "type": "0x2",
      "transactionHash": "0x43852356b3d79d6b1f330b3cc6353ef7bf732953ea74a572c4701c58f793ebcd",
      "transactionIndex": "0x1",
      "blockHash": "0x3ba85206909f40989fe915b6809d1d8b2091ef0bd717a9c191d48c4184a8fdfc",
      "blockNumber": "0x1a2aa96",
      "gasUsed": "0xe357",
      "effectiveGasPrice": "0x7270e00",
      "from": "0x20d2f3170153b2a33576ebcd1de32e13bf916e22",
      "to": "0x88598d1efc9032318fb7b39dcdd9e5c2a7a4f8b9",
      "contractAddress": null
    }
  ],
  "libraries": [],
  "pending": [],
  "returns": {},
  "timestamp": 1753003441,
  "chain": 998,
  "commit": "50bf457"
}