{
  "transactions": [
    {
      "hash": "0x0e25fb790ba980b3ca637def74f8d071a8dea1a0cd5fa48d00a3a6c4661656b5",
      "transactionType": "CALL",
      "contractName": null,
      "contractAddress": "0xeb8a61be50da162a01ccce1e5633bb3c21a13abc",
      "function": "updateFeeCreator(bool,uint256)",
      "arguments": [
        "true",
        "100"
      ],
      "transaction": {
        "from": "0x20d2f3170153b2a33576ebcd1de32e13bf916e22",
        "to": "0xeb8a61be50da162a01ccce1e5633bb3c21a13abc",
        "gas": "0x14cdd",
        "value": "0x0",
        "input": "0xdea241bf00000000000000000000000000000000000000000000000000000000000000010000000000000000000000000000000000000000000000000000000000000064",
        "nonce": "0x87",
        "chainId": "0x14a34"
      },
      "additionalContracts": [],
      "isFixedGasLimit": false
    },
    {
      "hash": "0x12694ba1c0324bc618275575363b3de89a1c51a6ab868d93303bb1c5c5b75612",
      "transactionType": "CALL",
      "contractName": null,
      "contractAddress": "0xeb8a61be50da162a01ccce1e5633bb3c21a13abc",
      "function": "updateFeePlatform(bool,uint256)",
      "arguments": [
        "true",
        "20"
      ],
      "transaction": {
        "from": "0x20d2f3170153b2a33576ebcd1de32e13bf916e22",
        "to": "0xeb8a61be50da162a01ccce1e5633bb3c21a13abc",
        "gas": "0x13a20",
        "value": "0x0",
        "input": "0xf358b64600000000000000000000000000000000000000000000000000000000000000010000000000000000000000000000000000000000000000000000000000000014",
        "nonce": "0x88",
        "chainId": "0x14a34"
      },
      "additionalContracts": [],
      "isFixedGasLimit": false
    }
  ],
  "receipts": [
    {
      "status": "0x1",
      "cumulativeGasUsed": "0x5b3edc",
      "logs": [
        {
          "address": "0xeb8a61be50da162a01ccce1e5633bb3c21a13abc",
          "topics": [
            "0x58d2f0727d1e89eaefaf56e10b6d5b9167ac07eccda784d7554fa16d12e25359"
          ],
          "data": "0x0000000000000000000000000000000000000000000000000000000000000001000000000000000000000000000000000000000000000000000000000000006400000000000000000000000000000000000000000000000000000000000000000000000000000000000000000000000000000000000000000000000000000064",
          "blockHash": "0xc0b82e3208d31ce6faa3fffb5d9b1a6915f3f317dac101b48ecc8cbbfee117fe",
          "blockNumber": "0x1c8e99f",
          "blockTimestamp": "0x68a5321e",
          "transactionHash": "0x0e25fb790ba980b3ca637def74f8d071a8dea1a0cd5fa48d00a3a6c4661656b5",
          "transactionIndex": "0x34",
          "logIndex": "0xb4",
          "removed": false
        }
      ],
      "logsBloom": "0x00000000000000000000000000000000000000000000000000000000000000000000000000010000000000000000000020000000000000000000000000000000000000000000000000000000000000000000000000000000000000000000000000000000000000000000000000010000000000000000000000000000000000000000000000000000000000000000000000000000000000000000000000000000000000000000010000000000000000000000000000000000000000000000000000000100000000000002000000000000000000000000000000000000000000000000000000000000000000000000000000000000000000000000000000000000",
      "type": "0x2",
      "transactionHash": "0x0e25fb790ba980b3ca637def74f8d071a8dea1a0cd5fa48d00a3a6c4661656b5",
      "transactionIndex": "0x34",
      "blockHash": "0xc0b82e3208d31ce6faa3fffb5d9b1a6915f3f317dac101b48ecc8cbbfee117fe",
      "blockNumber": "0x1c8e99f",
      "gasUsed": "0xe39a",
      "effectiveGasPrice": "0xf42ab",
      "from": "0x20d2f3170153b2a33576ebcd1de32e13bf916e22",
      "to": "0xeb8a61be50da162a01ccce1e5633bb3c21a13abc",
      "contractAddress": null,
      "l1BaseFeeScalar": "0x44d",
      "l1BlobBaseFee": "0x1",
      "l1BlobBaseFeeScalar": "0xa118b",
      "l1Fee": "0xd39319",
      "l1GasPrice": "0x781a64",
      "l1GasUsed": "0x640"
    },
    {
      "status": "0x1",
      "cumulativeGasUsed": "0x5c2249",
      "logs": [
        {
          "address": "0xeb8a61be50da162a01ccce1e5633bb3c21a13abc",
          "topics": [
            "0x58d2f0727d1e89eaefaf56e10b6d5b9167ac07eccda784d7554fa16d12e25359"
          ],
          "data": "0x0000000000000000000000000000000000000000000000000000000000000001000000000000000000000000000000000000000000000000000000000000006400000000000000000000000000000000000000000000000000000000000000010000000000000000000000000000000000000000000000000000000000000014",
          "blockHash": "0xc0b82e3208d31ce6faa3fffb5d9b1a6915f3f317dac101b48ecc8cbbfee117fe",
          "blockNumber": "0x1c8e99f",
          "blockTimestamp": "0x68a5321e",
          "transactionHash": "0x12694ba1c0324bc618275575363b3de89a1c51a6ab868d93303bb1c5c5b75612",
          "transactionIndex": "0x35",
          "logIndex": "0xb5",
          "removed": false
        }
      ],
      "logsBloom": "0x00000000000000000000000000000000000000000000000000000000000000000000000000010000000000000000000020000000000000000000000000000000000000000000000000000000000000000000000000000000000000000000000000000000000000000000000000010000000000000000000000000000000000000000000000000000000000000000000000000000000000000000000000000000000000000000010000000000000000000000000000000000000000000000000000000100000000000002000000000000000000000000000000000000000000000000000000000000000000000000000000000000000000000000000000000000",
      "type": "0x2",
      "transactionHash": "0x12694ba1c0324bc618275575363b3de89a1c51a6ab868d93303bb1c5c5b75612",
      "transactionIndex": "0x35",
      "blockHash": "0xc0b82e3208d31ce6faa3fffb5d9b1a6915f3f317dac101b48ecc8cbbfee117fe",
      "blockNumber": "0x1c8e99f",
      "gasUsed": "0xe36d",
      "effectiveGasPrice": "0xf42ab",
      "from": "0x20d2f3170153b2a33576ebcd1de32e13bf916e22",
      "to": "0xeb8a61be50da162a01ccce1e5633bb3c21a13abc",
      "contractAddress": null,
      "l1BaseFeeScalar": "0x44d",
      "l1BlobBaseFee": "0x1",
      "l1BlobBaseFeeScalar": "0xa118b",
      "l1Fee": "0xd39319",
      "l1GasPrice": "0x781a64",
      "l1GasUsed": "0x640"
    }
  ],
  "libraries": [],
  "pending": [],
  "returns": {},
  "timestamp": 1755656737,
  "chain": 84532,
  "commit": "64c969d"
}