{
  "transactions": [
    {
      "hash": null,
      "transactionType": "CALL",
      "contractName": null,
      "contractAddress": "0xeb8a61be50da162a01ccce1e5633bb3c21a13abc",
      "function": "updateFeeCreator(bool,uint256)",
      "arguments": [
        "true",
        "100"
      ],
      "transaction": {
        "from": "0x20d2f3170153b2a33576ebcd1de32e13bf916e22",
        "to": "0xeb8a61be50da162a01ccce1e5633bb3c21a13abc",
        "gas": "0x14cdd",
        "value": "0x0",
        "input": "0xdea241bf00000000000000000000000000000000000000000000000000000000000000010000000000000000000000000000000000000000000000000000000000000064",
        "nonce": "0x87",
        "chainId": "0x14a34"
      },
      "additionalContracts": [],
      "isFixedGasLimit": false
    },
    {
      "hash": null,
      "transactionType": "CALL",
      "contractName": null,
      "contractAddress": "0xeb8a61be50da162a01ccce1e5633bb3c21a13abc",
      "function": "updateFeePlatform(bool,uint256)",
      "arguments": [
        "true",
        "20"
      ],
      "transaction": {
        "from": "0x20d2f3170153b2a33576ebcd1de32e13bf916e22",
        "to": "0xeb8a61be50da162a01ccce1e5633bb3c21a13abc",
        "gas": "0x13a20",
        "value": "0x0",
        "input": "0xf358b64600000000000000000000000000000000000000000000000000000000000000010000000000000000000000000000000000000000000000000000000000000014",
        "nonce": "0x88",
        "chainId": "0x14a34"
      },
      "additionalContracts": [],
      "isFixedGasLimit": false
    }
  ],
  "receipts": [],
  "libraries": [],
  "pending": [],
  "returns": {},
  "timestamp": 1755656680,
  "chain": 84532,
  "commit": "64c969d"
}