{
  "transactions": [
    {
      "hash": "0x0524a8d48a08552c446402331ab0b3f99ccde924ecc62b8cb68baf7c905cd7e8",
      "transactionType": "CALL",
      "contractName": null,
      "contractAddress": "0xc43d8ff912abcb7bab8abc61cacd11b0c630dd9d",
      "function": "transferOwnership(address)",
      "arguments": [
        "0x52Ef0599184a851C83814B0883da15f2697394a6"
      ],
      "transaction": {
        "from": "0xcd310b1c2f2fb183eea465182a0bf80353b241d1",
        "to": "0xc43d8ff912abcb7bab8abc61cacd11b0c630dd9d",
        "gas": "0x9c9f",
        "value": "0x0",
        "input": "0xf2fde38b00000000000000000000000052ef0599184a851c83814b0883da15f2697394a6",
        "nonce": "0xb",
        "chainId": "0x2105"
      },
      "additionalContracts": [],
      "isFixedGasLimit": false
    }
  ],
  "receipts": [
    {
      "status": "0x1",
      "cumulativeGasUsed": "0x239cd6c",
      "logs": [
        {
          "address": "0xc43d8ff912abcb7bab8abc61cacd11b0c630dd9d",
          "topics": [
            "0x8be0079c531659141344cd1fd0a4f28419497f9722a3daafe3b4186f6b6457e0",
            "0x000000000000000000000000cd310b1c2f2fb183eea465182a0bf80353b241d1",
            "0x00000000000000000000000052ef0599184a851c83814b0883da15f2697394a6"
          ],
          "data": "0x",
          "blockHash": "0x746a18c15372ee5f6e94a158f7178bceb39b5be156fc7426322556e377157e2e",
          "blockNumber": "0x21019c7",
          "blockTimestamp": "0x68aa9071",
          "transactionHash": "0x0524a8d48a08552c446402331ab0b3f99ccde924ecc62b8cb68baf7c905cd7e8",
          "transactionIndex": "0xb3",
          "logIndex": "0x269",
          "removed": false
        }
      ],
      "logsBloom": "0x10000000000000000000000000000000000000000000000000800000000000000000000000100000000000000000000002000000000000000000000000000000000000000000000000000000000000000001000000000000000000200000000000000000000000000000000000000000000000000000100000000000000000400000000000000000000000000000000000000000000000000000000000000000000000000000000000000000000000000000000000000000000000000000000000000000000000000000000000000000000000000000008000002000000000000000000000000000000000000000080000000000000000000040000000000000",
      "type": "0x2",
      "transactionHash": "0x0524a8d48a08552c446402331ab0b3f99ccde924ecc62b8cb68baf7c905cd7e8",
      "transactionIndex": "0xb3",
      "blockHash": "0x746a18c15372ee5f6e94a158f7178bceb39b5be156fc7426322556e377157e2e",
      "blockNumber": "0x21019c7",
      "gasUsed": "0x7165",
      "effectiveGasPrice": "0xedb81",
      "from": "0xcd310b1c2f2fb183eea465182a0bf80353b241d1",
      "to": "0xc43d8ff912abcb7bab8abc61cacd11b0c630dd9d",
      "contractAddress": null,
      "l1BaseFeeScalar": "0x8dd",
      "l1BlobBaseFee": "0x1",
      "l1BlobBaseFeeScalar": "0x101c12",
      "l1Fee": "0x21b5485f",
      "l1GasPrice": "0x948f354",
      "l1GasUsed": "0x640"
    }
  ],
  "libraries": [],
  "pending": [],
  "returns": {},
  "timestamp": 1756008560,
  "chain": 8453,
  "commit": "7851645"
}