{
  "transactions": [
    {
      "hash": "0x1076f29537bd07bb0097aca8d51c7c2f8f470b3502bd47343cf864fe3949852e",
      "transactionType": "CALL",
      "contractName": null,
      "contractAddress": "0x1b2fd67c5026f9c9a4e6c469ec4a6e5fb207f211",
      "function": "updateFeeCreator(bool,uint256)",
      "arguments": [
        "true",
        "200"
      ],
      "transaction": {
        "from": "0x20d2f3170153b2a33576ebcd1de32e13bf916e22",
        "to": "0x1b2fd67c5026f9c9a4e6c469ec4a6e5fb207f211",
        "gas": "0x1317c",
        "value": "0x0",
        "input": "0xdea241bf000000000000000000000000000000000000000000000000000000000000000100000000000000000000000000000000000000000000000000000000000000c8",
        "nonce": "0xb9",
        "chainId": "0x3e6"
      },
      "additionalContracts": [],
      "isFixedGasLimit": false
    },
    {
      "hash": "0x882567c261567c0aedddbba529ad2fe5d855e6f43bd801820ca413d33b2ef468",
      "transactionType": "CALL",
      "contractName": null,
      "contractAddress": "0x1b2fd67c5026f9c9a4e6c469ec4a6e5fb207f211",
      "function": "updateFeePlatform(bool,uint256)",
      "arguments": [
        "true",
        "100"
      ],
      "transaction": {
        "from": "0x20d2f3170153b2a33576ebcd1de32e13bf916e22",
        "to": "0x1b2fd67c5026f9c9a4e6c469ec4a6e5fb207f211",
        "gas": "0xcff4",
        "value": "0x0",
        "input": "0xf358b64600000000000000000000000000000000000000000000000000000000000000010000000000000000000000000000000000000000000000000000000000000064",
        "nonce": "0xba",
        "chainId": "0x3e6"
      },
      "additionalContracts": [],
      "isFixedGasLimit": false
    }
  ],
  "receipts": [
    {
      "status": "0x1",
      "cumulativeGasUsed": "0xd0e1",
      "logs": [
        {
          "address": "0x1b2fd67c5026f9c9a4e6c469ec4a6e5fb207f211",
          "topics": [
            "0x58d2f0727d1e89eaefaf56e10b6d5b9167ac07eccda784d7554fa16d12e25359"
          ],
          "data": "0x000000000000000000000000000000000000000000000000000000000000000100000000000000000000000000000000000000000000000000000000000000c800000000000000000000000000000000000000000000000000000000000000000000000000000000000000000000000000000000000000000000000000000064",
          "blockHash": "0xe4265d8ed8db431842ca85bcb61c9bfebeff0ce99917bb0f7a2cd8e29f5e0573",
          "blockNumber": "0x19d0eff",
          "blockTimestamp": "0x6877217a",
          "transactionHash": "0x1076f29537bd07bb0097aca8d51c7c2f8f470b3502bd47343cf864fe3949852e",
          "transactionIndex": "0x0",
          "logIndex": "0x0",
          "removed": false
        }
      ],
      "logsBloom": "0x00000000000000000000000000000000000000000000000000000000000000000000000000000000000000000000000020000000000000000000000000000000000000000000000000000000000000000000000000000000000000000000000000000000000000000000000000000000000000000000000000000000000000000000000000000000000000000000000000000000000002000000000000004000000008000000010000000000000000000000000000000000000000000000000000000000000000000002000000000000000000000000000000000000000000000000000000000000000000000000000000000000000000000000000000000000",
      "type": "0x2",
      "transactionHash": "0x1076f29537bd07bb0097aca8d51c7c2f8f470b3502bd47343cf864fe3949852e",
      "transactionIndex": "0x0",
      "blockHash": "0xe4265d8ed8db431842ca85bcb61c9bfebeff0ce99917bb0f7a2cd8e29f5e0573",
      "blockNumber": "0x19d0eff",
      "gasUsed": "0xd0e1",
      "effectiveGasPrice": "0x5f5e101",
      "from": "0x20d2f3170153b2a33576ebcd1de32e13bf916e22",
      "to": "0x1b2fd67c5026f9c9a4e6c469ec4a6e5fb207f211",
      "contractAddress": null
    },
    {
      "status": "0x1",
      "cumulativeGasUsed": "0x15f12",
      "logs": [
        {
          "address": "0x1b2fd67c5026f9c9a4e6c469ec4a6e5fb207f211",
          "topics": [
            "0x58d2f0727d1e89eaefaf56e10b6d5b9167ac07eccda784d7554fa16d12e25359"
          ],
          "data": "0x000000000000000000000000000000000000000000000000000000000000000100000000000000000000000000000000000000000000000000000000000000c800000000000000000000000000000000000000000000000000000000000000010000000000000000000000000000000000000000000000000000000000000064",
          "blockHash": "0xe4265d8ed8db431842ca85bcb61c9bfebeff0ce99917bb0f7a2cd8e29f5e0573",
          "blockNumber": "0x19d0eff",
          "blockTimestamp": "0x6877217a",
          "transactionHash": "0x882567c261567c0aedddbba529ad2fe5d855e6f43bd801820ca413d33b2ef468",
          "transactionIndex": "0x1",
          "logIndex": "0x1",
          "removed": false
        }
      ],
      "logsBloom": "0x00000000000000000000000000000000000000000000000000000000000000000000000000000000000000000000000020000000000000000000000000000000000000000000000000000000000000000000000000000000000000000000000000000000000000000000000000000000000000000000000000000000000000000000000000000000000000000000000000000000000002000000000000004000000008000000010000000000000000000000000000000000000000000000000000000000000000000002000000000000000000000000000000000000000000000000000000000000000000000000000000000000000000000000000000000000",
      "type": "0x2",
      "transactionHash": "0x882567c261567c0aedddbba529ad2fe5d855e6f43bd801820ca413d33b2ef468",
      "transactionIndex": "0x1",
      "blockHash": "0xe4265d8ed8db431842ca85bcb61c9bfebeff0ce99917bb0f7a2cd8e29f5e0573",
      "blockNumber": "0x19d0eff",
      "gasUsed": "0x8e31",
      "effectiveGasPrice": "0x5f5e101",
      "from": "0x20d2f3170153b2a33576ebcd1de32e13bf916e22",
      "to": "0x1b2fd67c5026f9c9a4e6c469ec4a6e5fb207f211",
      "contractAddress": null
    }
  ],
  "libraries": [],
  "pending": [],
  "returns": {},
  "timestamp": 1752637819,
  "chain": 998,
  "commit": "293381d"
}