{
  "transactions": [
    {
      "hash": "0x4f0d3ce3f0954d96c27987c979ca1ed17792d2ed344b87bdab38ba588b52e2da",
      "transactionType": "CALL",
      "contractName": null,
      "contractAddress": "0xd2cec1c39df0c686d21957485ffaf696c07cc385",
      "function": "updateFeeCreator(bool,uint256)",
      "arguments": [
        "true",
        "200"
      ],
      "transaction": {
        "from": "0x20d2f3170153b2a33576ebcd1de32e13bf916e22",
        "to": "0xd2cec1c39df0c686d21957485ffaf696c07cc385",
        "gas": "0x1317c",
        "value": "0x0",
        "input": "0xdea241bf000000000000000000000000000000000000000000000000000000000000000100000000000000000000000000000000000000000000000000000000000000c8",
        "nonce": "0xc0",
        "chainId": "0x3e6"
      },
      "additionalContracts": [],
      "isFixedGasLimit": false
    },
    {
      "hash": "0x48621078f85068a2b6c6f0aadc5dad9038907fba1897417db33c6f36d57f0fac",
      "transactionType": "CALL",
      "contractName": null,
      "contractAddress": "0xd2cec1c39df0c686d21957485ffaf696c07cc385",
      "function": "updateFeePlatform(bool,uint256)",
      "arguments": [
        "true",
        "100"
      ],
      "transaction": {
        "from": "0x20d2f3170153b2a33576ebcd1de32e13bf916e22",
        "to": "0xd2cec1c39df0c686d21957485ffaf696c07cc385",
        "gas": "0xcff4",
        "value": "0x0",
        "input": "0xf358b64600000000000000000000000000000000000000000000000000000000000000010000000000000000000000000000000000000000000000000000000000000064",
        "nonce": "0xc1",
        "chainId": "0x3e6"
      },
      "additionalContracts": [],
      "isFixedGasLimit": false
    }
  ],
  "receipts": [
    {
      "status": "0x1",
      "cumulativeGasUsed": "0xd0e1",
      "logs": [
        {
          "address": "0xd2cec1c39df0c686d21957485ffaf696c07cc385",
          "topics": [
            "0x58d2f0727d1e89eaefaf56e10b6d5b9167ac07eccda784d7554fa16d12e25359"
          ],
          "data": "0x000000000000000000000000000000000000000000000000000000000000000100000000000000000000000000000000000000000000000000000000000000c800000000000000000000000000000000000000000000000000000000000000000000000000000000000000000000000000000000000000000000000000000064",
          "blockHash": "0x069c52c9adc0d42360000b29f4a7339e7be7b04575c7a3ea51f2f3a1a6c0dc21",
          "blockNumber": "0x19d1447",
          "blockTimestamp": "0x687726ac",
          "transactionHash": "0x4f0d3ce3f0954d96c27987c979ca1ed17792d2ed344b87bdab38ba588b52e2da",
          "transactionIndex": "0x0",
          "logIndex": "0x0",
          "removed": false
        }
      ],
      "logsBloom": "0x00000000000000000000000000000000000000000000000000000000000000000000000000000000000000000000000021000000000000000000000000000000000000000000000000000000000000004000000000000000000000000000000000000000000000000000000000000000000000000000000000000000000000000000000000000000000000000000000000000000000000000000000000000000000000000000010000000000000000000000800000000000000000000000000000000000000000000002000000000000000000000000000000000000000000000000000000000000000000000000000000000000000000000000000000000000",
      "type": "0x2",
      "transactionHash": "0x4f0d3ce3f0954d96c27987c979ca1ed17792d2ed344b87bdab38ba588b52e2da",
      "transactionIndex": "0x0",
      "blockHash": "0x069c52c9adc0d42360000b29f4a7339e7be7b04575c7a3ea51f2f3a1a6c0dc21",
      "blockNumber": "0x19d1447",
      "gasUsed": "0xd0e1",
      "effectiveGasPrice": "0x5f5e101",
      "from": "0x20d2f3170153b2a33576ebcd1de32e13bf916e22",
      "to": "0xd2cec1c39df0c686d21957485ffaf696c07cc385",
      "contractAddress": null
    },
    {
      "status": "0x1",
      "cumulativeGasUsed": "0x8e31",
      "logs": [
        {
          "address": "0xd2cec1c39df0c686d21957485ffaf696c07cc385",
          "topics": [
            "0x58d2f0727d1e89eaefaf56e10b6d5b9167ac07eccda784d7554fa16d12e25359"
          ],
          "data": "0x000000000000000000000000000000000000000000000000000000000000000100000000000000000000000000000000000000000000000000000000000000c800000000000000000000000000000000000000000000000000000000000000010000000000000000000000000000000000000000000000000000000000000064",
          "blockHash": "0xb3701bf8904745190f9c9a5b1051f04ad55f627f7070d092b7145fdcabc015df",
          "blockNumber": "0x19d1448",
          "blockTimestamp": "0x687726ad",
          "transactionHash": "0x48621078f85068a2b6c6f0aadc5dad9038907fba1897417db33c6f36d57f0fac",
          "transactionIndex": "0x0",
          "logIndex": "0x0",
          "removed": false
        }
      ],
      "logsBloom": "0x00000000000000000000000000000000000000000000000000000000000000000000000000000000000000000000000021000000000000000000000000000000000000000000000000000000000000004000000000000000000000000000000000000000000000000000000000000000000000000000000000000000000000000000000000000000000000000000000000000000000000000000000000000000000000000000010000000000000000000000800000000000000000000000000000000000000000000002000000000000000000000000000000000000000000000000000000000000000000000000000000000000000000000000000000000000",
      "type": "0x2",
      "transactionHash": "0x48621078f85068a2b6c6f0aadc5dad9038907fba1897417db33c6f36d57f0fac",
      "transactionIndex": "0x0",
      "blockHash": "0xb3701bf8904745190f9c9a5b1051f04ad55f627f7070d092b7145fdcabc015df",
      "blockNumber": "0x19d1448",
      "gasUsed": "0x8e31",
      "effectiveGasPrice": "0x5f5e101",
      "from": "0x20d2f3170153b2a33576ebcd1de32e13bf916e22",
      "to": "0xd2cec1c39df0c686d21957485ffaf696c07cc385",
      "contractAddress": null
    }
  ],
  "libraries": [],
  "pending": [],
  "returns": {},
  "timestamp": 1752639150,
  "chain": 998,
  "commit": "293381d"
}