{
  "transactions": [
    {
      "hash": "0xb403c51c4f3f6fee07d41f7926f8ce415c6b9f32fdea27e32dccb82259797500",
      "transactionType": "CALL",
      "contractName": null,
      "contractAddress": "0x88598d1efc9032318fb7b39dcdd9e5c2a7a4f8b9",
      "function": "updateFeeCreator(bool,uint256)",
      "arguments": [
        "true",
        "100"
      ],
      "transaction": {
        "from": "0x20d2f3170153b2a33576ebcd1de32e13bf916e22",
        "to": "0x88598d1efc9032318fb7b39dcdd9e5c2a7a4f8b9",
        "gas": "0xcaee",
        "value": "0x0",
        "input": "0xdea241bf00000000000000000000000000000000000000000000000000000000000000010000000000000000000000000000000000000000000000000000000000000064",
        "nonce": "0x127",
        "chainId": "0x3e6"
      },
      "additionalContracts": [],
      "isFixedGasLimit": false
    },
    {
      "hash": "0x499d511dd3d38b99a7cfe3dff763465a2aab6334686f174e5473eec12d7a85ef",
      "transactionType": "CALL",
      "contractName": null,
      "contractAddress": "0x88598d1efc9032318fb7b39dcdd9e5c2a7a4f8b9",
      "function": "updateFeePlatform(bool,uint256)",
      "arguments": [
        "true",
        "100"
      ],
      "transaction": {
        "from": "0x20d2f3170153b2a33576ebcd1de32e13bf916e22",
        "to": "0x88598d1efc9032318fb7b39dcdd9e5c2a7a4f8b9",
        "gas": "0xdacb",
        "value": "0x0",
        "input": "0xf358b64600000000000000000000000000000000000000000000000000000000000000010000000000000000000000000000000000000000000000000000000000000064",
        "nonce": "0x128",
        "chainId": "0x3e6"
      },
      "additionalContracts": [],
      "isFixedGasLimit": false
    }
  ],
  "receipts": [
    {
      "status": "0x1",
      "cumulativeGasUsed": "0x8ac2",
      "logs": [
        {
          "address": "0x88598d1efc9032318fb7b39dcdd9e5c2a7a4f8b9",
          "topics": [
            "0x58d2f0727d1e89eaefaf56e10b6d5b9167ac07eccda784d7554fa16d12e25359"
          ],
          "data": "0x0000000000000000000000000000000000000000000000000000000000000001000000000000000000000000000000000000000000000000000000000000006400000000000000000000000000000000000000000000000000000000000000010000000000000000000000000000000000000000000000000000000000000032",
          "blockHash": "0x2f2e5d24216256d74836f1618dcb8871bf20eff8463ab040ba926581b6f3a685",
          "blockNumber": "0x1a418a8",
          "blockTimestamp": "0x687e2002",
          "transactionHash": "0xb403c51c4f3f6fee07d41f7926f8ce415c6b9f32fdea27e32dccb82259797500",
          "transactionIndex": "0x0",
          "logIndex": "0x0",
          "removed": false
        }
      ],
      "logsBloom": "0x00000000000000000000000000000000000000000000000000000000000000000000000000000000000000000000000020000000000000000000000000000000000000000000000000000000000000000000000000000000000000000000000000000000000000000000000000000000000000000000000000000000000000000000000000001000000000000000000000000000000000000004000000000000000000000000010000000000000000000000000000000000000000000000000000000000000000000002000000000000000000000000000000000000000000000000000000000000000000000004000000000000000000000000000000000000",
      "type": "0x2",
      "transactionHash": "0xb403c51c4f3f6fee07d41f7926f8ce415c6b9f32fdea27e32dccb82259797500",
      "transactionIndex": "0x0",
      "blockHash": "0x2f2e5d24216256d74836f1618dcb8871bf20eff8463ab040ba926581b6f3a685",
      "blockNumber": "0x1a418a8",
      "gasUsed": "0x8ac2",
      "effectiveGasPrice": "0x5f5e101",
      "from": "0x20d2f3170153b2a33576ebcd1de32e13bf916e22",
      "to": "0x88598d1efc9032318fb7b39dcdd9e5c2a7a4f8b9",
      "contractAddress": null
    },
    {
      "status": "0x1",
      "cumulativeGasUsed": "0x1205d",
      "logs": [
        {
          "address": "0x88598d1efc9032318fb7b39dcdd9e5c2a7a4f8b9",
          "topics": [
            "0x58d2f0727d1e89eaefaf56e10b6d5b9167ac07eccda784d7554fa16d12e25359"
          ],
          "data": "0x0000000000000000000000000000000000000000000000000000000000000001000000000000000000000000000000000000000000000000000000000000006400000000000000000000000000000000000000000000000000000000000000010000000000000000000000000000000000000000000000000000000000000064",
          "blockHash": "0x2f2e5d24216256d74836f1618dcb8871bf20eff8463ab040ba926581b6f3a685",
          "blockNumber": "0x1a418a8",
          "blockTimestamp": "0x687e2002",
          "transactionHash": "0x499d511dd3d38b99a7cfe3dff763465a2aab6334686f174e5473eec12d7a85ef",
          "transactionIndex": "0x1",
          "logIndex": "0x1",
          "removed": false
        }
      ],
      "logsBloom": "0x00000000000000000000000000000000000000000000000000000000000000000000000000000000000000000000000020000000000000000000000000000000000000000000000000000000000000000000000000000000000000000000000000000000000000000000000000000000000000000000000000000000000000000000000000001000000000000000000000000000000000000004000000000000000000000000010000000000000000000000000000000000000000000000000000000000000000000002000000000000000000000000000000000000000000000000000000000000000000000004000000000000000000000000000000000000",
      "type": "0x2",
      "transactionHash": "0x499d511dd3d38b99a7cfe3dff763465a2aab6334686f174e5473eec12d7a85ef",
      "transactionIndex": "0x1",
      "blockHash": "0x2f2e5d24216256d74836f1618dcb8871bf20eff8463ab040ba926581b6f3a685",
      "blockNumber": "0x1a418a8",
      "gasUsed": "0x959b",
      "effectiveGasPrice": "0x5f5e101",
      "from": "0x20d2f3170153b2a33576ebcd1de32e13bf916e22",
      "to": "0x88598d1efc9032318fb7b39dcdd9e5c2a7a4f8b9",
      "contractAddress": null
    }
  ],
  "libraries": [],
  "pending": [],
  "returns": {},
  "timestamp": 1753096194,
  "chain": 998,
  "commit": "40ef220"
}