{
  "transactions": [
    {
      "hash": "0x1b040b395374199e8375b180cd76c4836e0d758160141b28af5bb15f090f4cce",
      "transactionType": "CALL",
      "contractName": null,
      "contractAddress": "0x3eb11c552cc4259730f14b8b88deef06f78a7913",
      "function": "updateFeeCreator(bool,uint256)",
      "arguments": [
        "true",
        "100"
      ],
      "transaction": {
        "from": "0x20d2f3170153b2a33576ebcd1de32e13bf916e22",
        "to": "0x3eb11c552cc4259730f14b8b88deef06f78a7913",
        "gas": "0x13a22",
        "value": "0x0",
        "input": "0xdea241bf00000000000000000000000000000000000000000000000000000000000000010000000000000000000000000000000000000000000000000000000000000064",
        "nonce": "0x13a",
        "chainId": "0x3e6"
      },
      "additionalContracts": [],
      "isFixedGasLimit": false
    },
    {
      "hash": "0x5b3daa8a91121068203b63446e517a8f0466f2bff8624a421ac33aa212a281c7",
      "transactionType": "CALL",
      "contractName": null,
      "contractAddress": "0x3eb11c552cc4259730f14b8b88deef06f78a7913",
      "function": "updateFeePlatform(bool,uint256)",
      "arguments": [
        "true",
        "50"
      ],
      "transaction": {
        "from": "0x20d2f3170153b2a33576ebcd1de32e13bf916e22",
        "to": "0x3eb11c552cc4259730f14b8b88deef06f78a7913",
        "gas": "0x13a02",
        "value": "0x0",
        "input": "0xf358b64600000000000000000000000000000000000000000000000000000000000000010000000000000000000000000000000000000000000000000000000000000032",
        "nonce": "0x13b",
        "chainId": "0x3e6"
      },
      "additionalContracts": [],
      "isFixedGasLimit": false
    }
  ],
  "receipts": [
    {
      "status": "0x1",
      "cumulativeGasUsed": "0xe36e",
      "logs": [
        {
          "address": "0x3eb11c552cc4259730f14b8b88deef06f78a7913",
          "topics": [
            "0x58d2f0727d1e89eaefaf56e10b6d5b9167ac07eccda784d7554fa16d12e25359"
          ],
          "data": "0x0000000000000000000000000000000000000000000000000000000000000001000000000000000000000000000000000000000000000000000000000000006400000000000000000000000000000000000000000000000000000000000000000000000000000000000000000000000000000000000000000000000000000064",
          "blockHash": "0x824b316dd4aa72a95a3c8b074dc66a567b1a47d4cc0c1be571c62f56feb54ee4",
          "blockNumber": "0x1a44a9c",
          "blockTimestamp": "0x687e5127",
          "transactionHash": "0x1b040b395374199e8375b180cd76c4836e0d758160141b28af5bb15f090f4cce",
          "transactionIndex": "0x0",
          "logIndex": "0x0",
          "removed": false
        }
      ],
      "logsBloom": "0x00000000000000000000000000000000000000000000000000000000000000000000000000000000000000000000000020000000000000000000000000000000000000000000000000000000000000000000000000000000000000000000000000000000000000000000000000000000000000000000000000000000000000000000000000000000000040000000000000000000000000000000000000000000000000000000010000000000000000000000000000000000000000000000000000000000000000000002040000000000000000000000000000000800000000000000000000000000000000000000000000000000000000000000000000000000",
      "type": "0x2",
      "transactionHash": "0x1b040b395374199e8375b180cd76c4836e0d758160141b28af5bb15f090f4cce",
      "transactionIndex": "0x0",
      "blockHash": "0x824b316dd4aa72a95a3c8b074dc66a567b1a47d4cc0c1be571c62f56feb54ee4",
      "blockNumber": "0x1a44a9c",
      "gasUsed": "0xe36e",
      "effectiveGasPrice": "0x4190ab00",
      "from": "0x20d2f3170153b2a33576ebcd1de32e13bf916e22",
      "to": "0x3eb11c552cc4259730f14b8b88deef06f78a7913",
      "contractAddress": null
    },
    {
      "status": "0x1",
      "cumulativeGasUsed": "0x1c6c5",
      "logs": [
        {
          "address": "0x3eb11c552cc4259730f14b8b88deef06f78a7913",
          "topics": [
            "0x58d2f0727d1e89eaefaf56e10b6d5b9167ac07eccda784d7554fa16d12e25359"
          ],
          "data": "0x0000000000000000000000000000000000000000000000000000000000000001000000000000000000000000000000000000000000000000000000000000006400000000000000000000000000000000000000000000000000000000000000010000000000000000000000000000000000000000000000000000000000000032",
          "blockHash": "0x824b316dd4aa72a95a3c8b074dc66a567b1a47d4cc0c1be571c62f56feb54ee4",
          "blockNumber": "0x1a44a9c",
          "blockTimestamp": "0x687e5127",
          "transactionHash": "0x5b3daa8a91121068203b63446e517a8f0466f2bff8624a421ac33aa212a281c7",
          "transactionIndex": "0x1",
          "logIndex": "0x1",
          "removed": false
        }
      ],
      "logsBloom": "0x00000000000000000000000000000000000000000000000000000000000000000000000000000000000000000000000020000000000000000000000000000000000000000000000000000000000000000000000000000000000000000000000000000000000000000000000000000000000000000000000000000000000000000000000000000000000040000000000000000000000000000000000000000000000000000000010000000000000000000000000000000000000000000000000000000000000000000002040000000000000000000000000000000800000000000000000000000000000000000000000000000000000000000000000000000000",
      "type": "0x2",
      "transactionHash": "0x5b3daa8a91121068203b63446e517a8f0466f2bff8624a421ac33aa212a281c7",
      "transactionIndex": "0x1",
      "blockHash": "0x824b316dd4aa72a95a3c8b074dc66a567b1a47d4cc0c1be571c62f56feb54ee4",
      "blockNumber": "0x1a44a9c",
      "gasUsed": "0xe357",
      "effectiveGasPrice": "0x4190ab00",
      "from": "0x20d2f3170153b2a33576ebcd1de32e13bf916e22",
      "to": "0x3eb11c552cc4259730f14b8b88deef06f78a7913",
      "contractAddress": null
    }
  ],
  "libraries": [],
  "pending": [],
  "returns": {},
  "timestamp": 1753108776,
  "chain": 998,
  "commit": "4dd3c12"
}