{
  "transactions": [
    {
      "hash": "0xafacf6106a36a560920f23d0927630ae2af77b25c6df90309bf1633532f9e909",
      "transactionType": "CALL",
      "contractName": null,
      "contractAddress": "0xe4cbf75d535f62b84b6d6680dd25ae5a18a903f9",
      "function": "updateFeeCreator(bool,uint256)",
      "arguments": [
        "true",
        "100"
      ],
      "transaction": {
        "from": "0x20d2f3170153b2a33576ebcd1de32e13bf916e22",
        "to": "0xe4cbf75d535f62b84b6d6680dd25ae5a18a903f9",
        "gas": "0x13a41",
        "value": "0x0",
        "input": "0xdea241bf00000000000000000000000000000000000000000000000000000000000000010000000000000000000000000000000000000000000000000000000000000064",
        "nonce": "0x33",
        "chainId": "0x14a34"
      },
      "additionalContracts": [],
      "isFixedGasLimit": false
    },
    {
      "hash": "0x3000b1fa7d0f0cb3b74947d7e64c2f692815fedd4670877dd58e394429c0cb74",
      "transactionType": "CALL",
      "contractName": null,
      "contractAddress": "0xe4cbf75d535f62b84b6d6680dd25ae5a18a903f9",
      "function": "updateFeePlatform(bool,uint256)",
      "arguments": [
        "true",
        "50"
      ],
      "transaction": {
        "from": "0x20d2f3170153b2a33576ebcd1de32e13bf916e22",
        "to": "0xe4cbf75d535f62b84b6d6680dd25ae5a18a903f9",
        "gas": "0x13a20",
        "value": "0x0",
        "input": "0xf358b64600000000000000000000000000000000000000000000000000000000000000010000000000000000000000000000000000000000000000000000000000000032",
        "nonce": "0x34",
        "chainId": "0x14a34"
      },
      "additionalContracts": [],
      "isFixedGasLimit": false
    }
  ],
  "receipts": [
    {
      "status": "0x1",
      "cumulativeGasUsed": "0x2b16f8",
      "logs": [
        {
          "address": "0xe4cbf75d535f62b84b6d6680dd25ae5a18a903f9",
          "topics": [
            "0x58d2f0727d1e89eaefaf56e10b6d5b9167ac07eccda784d7554fa16d12e25359"
          ],
          "data": "0x0000000000000000000000000000000000000000000000000000000000000001000000000000000000000000000000000000000000000000000000000000006400000000000000000000000000000000000000000000000000000000000000000000000000000000000000000000000000000000000000000000000000000064",
          "blockHash": "0xa79e5eb0c7fdf39bd15606e04863f517175ece19c6980873229404e3debd32ae",
          "blockNumber": "0x1c49d89",
          "blockTimestamp": "0x689c99f2",
          "transactionHash": "0xafacf6106a36a560920f23d0927630ae2af77b25c6df90309bf1633532f9e909",
          "transactionIndex": "0x8",
          "logIndex": "0x80",
          "removed": false
        }
      ],
      "logsBloom": "0x00000000000000000000000000000000000000000000000000000000000000000000000000000000000000000000000020000000000000000000000000000000000000000000000000000000000000000000000000000000000000000000000000000000000000000000000000000000000000000000000000000000000000000000000000000000000000000000000000000000000000000000000000000000000000000000010000000000000000000000000000000000000000000000000000000000000000000002000000000000000000000000000000000000000000000000000000000000000000000000000040000000000001000000000200000000",
      "type": "0x2",
      "transactionHash": "0xafacf6106a36a560920f23d0927630ae2af77b25c6df90309bf1633532f9e909",
      "transactionIndex": "0x8",
      "blockHash": "0xa79e5eb0c7fdf39bd15606e04863f517175ece19c6980873229404e3debd32ae",
      "blockNumber": "0x1c49d89",
      "gasUsed": "0xe384",
      "effectiveGasPrice": "0xf4298",
      "from": "0x20d2f3170153b2a33576ebcd1de32e13bf916e22",
      "to": "0xe4cbf75d535f62b84b6d6680dd25ae5a18a903f9",
      "contractAddress": null,
      "l1BaseFeeScalar": "0x44d",
      "l1BlobBaseFee": "0x2672dbf6",
      "l1BlobBaseFeeScalar": "0xa118b",
      "l1Fee": "0xb439200ba",
      "l1GasPrice": "0xc4b6bcea",
      "l1GasUsed": "0x640"
    },
    {
      "status": "0x1",
      "cumulativeGasUsed": "0x2bfa65",
      "logs": [
        {
          "address": "0xe4cbf75d535f62b84b6d6680dd25ae5a18a903f9",
          "topics": [
            "0x58d2f0727d1e89eaefaf56e10b6d5b9167ac07eccda784d7554fa16d12e25359"
          ],
          "data": "0x0000000000000000000000000000000000000000000000000000000000000001000000000000000000000000000000000000000000000000000000000000006400000000000000000000000000000000000000000000000000000000000000010000000000000000000000000000000000000000000000000000000000000032",
          "blockHash": "0xa79e5eb0c7fdf39bd15606e04863f517175ece19c6980873229404e3debd32ae",
          "blockNumber": "0x1c49d89",
          "blockTimestamp": "0x689c99f2",
          "transactionHash": "0x3000b1fa7d0f0cb3b74947d7e64c2f692815fedd4670877dd58e394429c0cb74",
          "transactionIndex": "0x9",
          "logIndex": "0x81",
          "removed": false
        }
      ],
      "logsBloom": "0x00000000000000000000000000000000000000000000000000000000000000000000000000000000000000000000000020000000000000000000000000000000000000000000000000000000000000000000000000000000000000000000000000000000000000000000000000000000000000000000000000000000000000000000000000000000000000000000000000000000000000000000000000000000000000000000010000000000000000000000000000000000000000000000000000000000000000000002000000000000000000000000000000000000000000000000000000000000000000000000000040000000000001000000000200000000",
      "type": "0x2",
      "transactionHash": "0x3000b1fa7d0f0cb3b74947d7e64c2f692815fedd4670877dd58e394429c0cb74",
      "transactionIndex": "0x9",
      "blockHash": "0xa79e5eb0c7fdf39bd15606e04863f517175ece19c6980873229404e3debd32ae",
      "blockNumber": "0x1c49d89",
      "gasUsed": "0xe36d",
      "effectiveGasPrice": "0xf4298",
      "from": "0x20d2f3170153b2a33576ebcd1de32e13bf916e22",
      "to": "0xe4cbf75d535f62b84b6d6680dd25ae5a18a903f9",
      "contractAddress": null,
      "l1BaseFeeScalar": "0x44d",
      "l1BlobBaseFee": "0x2672dbf6",
      "l1BlobBaseFeeScalar": "0xa118b",
      "l1Fee": "0xb439200ba",
      "l1GasPrice": "0xc4b6bcea",
      "l1GasUsed": "0x640"
    }
  ],
  "libraries": [],
  "pending": [],
  "returns": {},
  "timestamp": 1755093489,
  "chain": 84532,
  "commit": "89ffa06"
}