{
  "transactions": [
    {
      "hash": "0x9d8784cb0444d4332fe8b882089e290bc4b31c73cd84b8e348535e329b3ad553",
      "transactionType": "CALL",
      "contractName": null,
      "contractAddress": "0xf19644783e32fb9bdf6b09b37be009c6faef67d0",
      "function": "updateFeeCreator(bool,uint256)",
      "arguments": [
        "true",
        "100"
      ],
      "transaction": {
        "from": "0x20d2f3170153b2a33576ebcd1de32e13bf916e22",
        "to": "0xf19644783e32fb9bdf6b09b37be009c6faef67d0",
        "gas": "0x13a41",
        "value": "0x0",
        "input": "0xdea241bf00000000000000000000000000000000000000000000000000000000000000010000000000000000000000000000000000000000000000000000000000000064",
        "nonce": "0x1f",
        "chainId": "0x14a34"
      },
      "additionalContracts": [],
      "isFixedGasLimit": false
    },
    {
      "hash": "0xc0d3c9aaec9d8e711c23296ca35e9aec283fa19f24abc9e5e5740a868ecd523d",
      "transactionType": "CALL",
      "contractName": null,
      "contractAddress": "0xf19644783e32fb9bdf6b09b37be009c6faef67d0",
      "function": "updateFeePlatform(bool,uint256)",
      "arguments": [
        "true",
        "50"
      ],
      "transaction": {
        "from": "0x20d2f3170153b2a33576ebcd1de32e13bf916e22",
        "to": "0xf19644783e32fb9bdf6b09b37be009c6faef67d0",
        "gas": "0x13a20",
        "value": "0x0",
        "input": "0xf358b64600000000000000000000000000000000000000000000000000000000000000010000000000000000000000000000000000000000000000000000000000000032",
        "nonce": "0x20",
        "chainId": "0x14a34"
      },
      "additionalContracts": [],
      "isFixedGasLimit": false
    }
  ],
  "receipts": [
    {
      "status": "0x1",
      "cumulativeGasUsed": "0xe43999",
      "logs": [
        {
          "address": "0xf19644783e32fb9bdf6b09b37be009c6faef67d0",
          "topics": [
            "0x58d2f0727d1e89eaefaf56e10b6d5b9167ac07eccda784d7554fa16d12e25359"
          ],
          "data": "0x0000000000000000000000000000000000000000000000000000000000000001000000000000000000000000000000000000000000000000000000000000006400000000000000000000000000000000000000000000000000000000000000000000000000000000000000000000000000000000000000000000000000000064",
          "blockHash": "0x30c32cda6eea4d843044c0957fd8c5eea64079d8cdb09f25dd8c563fb9b6be23",
          "blockNumber": "0x1c3c278",
          "blockTimestamp": "0x689ae3d0",
          "transactionHash": "0x9d8784cb0444d4332fe8b882089e290bc4b31c73cd84b8e348535e329b3ad553",
          "transactionIndex": "0x19",
          "logIndex": "0x76",
          "removed": false
        }
      ],
      "logsBloom": "0x00000010000000000000002000000000000000000000000000000000000000000000000000000000000000000000000020000000000000000000000000000000000000000000000000000000000000000000000000000000000000000000000000000000000000000000000000000000000000000000000000000000000000000000000000000000000000000000000000000000000000000000000000000000000000000000010000000000000000000000000000000000000000000000001000000000000000000002000000000000000000000000000000000000000000000000000000000000000000000000000000000000000000000000000000000000",
      "type": "0x2",
      "transactionHash": "0x9d8784cb0444d4332fe8b882089e290bc4b31c73cd84b8e348535e329b3ad553",
      "transactionIndex": "0x19",
      "blockHash": "0x30c32cda6eea4d843044c0957fd8c5eea64079d8cdb09f25dd8c563fb9b6be23",
      "blockNumber": "0x1c3c278",
      "gasUsed": "0xe384",
      "effectiveGasPrice": "0xf5358",
      "from": "0x20d2f3170153b2a33576ebcd1de32e13bf916e22",
      "to": "0xf19644783e32fb9bdf6b09b37be009c6faef67d0",
      "contractAddress": null,
      "l1BaseFeeScalar": "0x44d",
      "l1BlobBaseFee": "0x1",
      "l1BlobBaseFeeScalar": "0xa118b",
      "l1Fee": "0xa5d00",
      "l1GasPrice": "0x5e1df",
      "l1GasUsed": "0x640"
    },
    {
      "status": "0x1",
      "cumulativeGasUsed": "0x7256e2",
      "logs": [
        {
          "address": "0xf19644783e32fb9bdf6b09b37be009c6faef67d0",
          "topics": [
            "0x58d2f0727d1e89eaefaf56e10b6d5b9167ac07eccda784d7554fa16d12e25359"
          ],
          "data": "0x0000000000000000000000000000000000000000000000000000000000000001000000000000000000000000000000000000000000000000000000000000006400000000000000000000000000000000000000000000000000000000000000010000000000000000000000000000000000000000000000000000000000000032",
          "blockHash": "0xc3fe857d9088558c99d859f40d9f89d00d638c56121d097be7fdc5454caf9ead",
          "blockNumber": "0x1c3c279",
          "blockTimestamp": "0x689ae3d2",
          "transactionHash": "0xc0d3c9aaec9d8e711c23296ca35e9aec283fa19f24abc9e5e5740a868ecd523d",
          "transactionIndex": "0x9",
          "logIndex": "0x39",
          "removed": false
        }
      ],
      "logsBloom": "0x00000010000000000000002000000000000000000000000000000000000000000000000000000000000000000000000020000000000000000000000000000000000000000000000000000000000000000000000000000000000000000000000000000000000000000000000000000000000000000000000000000000000000000000000000000000000000000000000000000000000000000000000000000000000000000000010000000000000000000000000000000000000000000000001000000000000000000002000000000000000000000000000000000000000000000000000000000000000000000000000000000000000000000000000000000000",
      "type": "0x2",
      "transactionHash": "0xc0d3c9aaec9d8e711c23296ca35e9aec283fa19f24abc9e5e5740a868ecd523d",
      "transactionIndex": "0x9",
      "blockHash": "0xc3fe857d9088558c99d859f40d9f89d00d638c56121d097be7fdc5454caf9ead",
      "blockNumber": "0x1c3c279",
      "gasUsed": "0xe36d",
      "effectiveGasPrice": "0xf535f",
      "from": "0x20d2f3170153b2a33576ebcd1de32e13bf916e22",
      "to": "0xf19644783e32fb9bdf6b09b37be009c6faef67d0",
      "contractAddress": null,
      "l1BaseFeeScalar": "0x44d",
      "l1BlobBaseFee": "0x1",
      "l1BlobBaseFeeScalar": "0xa118b",
      "l1Fee": "0xa5d00",
      "l1GasPrice": "0x5e1df",
      "l1GasUsed": "0x640"
    }
  ],
  "libraries": [],
  "pending": [],
  "returns": {},
  "timestamp": 1754981332,
  "chain": 84532,
  "commit": "337e0c8"
}